:020000040800F2
:1000000000000220E10D0008A90B0008B10B000858
:10001000B90B0008C10B0008C90B00080000000064
:10002000000000000000000000000000D10B0008EC
:10003000DF0B000800000000ED0B0008FB0B0008C0
:10004000310E0008310E0008310E0008310E000894
:10005000310E0008310E0008310E0008310E000884
:10006000310E0008310E0008310E0008310E000874
:10007000310E0008310E0008310E0008310E000864
:10008000310E0008310E0008310E0008310E000854
:10009000310E0008310E0008310E0008310E000844
:1000A000310E0008310E0008310E0008310E000834
:1000B000310E0008310E0008310E0008310E000824
:1000C000310E0008310E0008310E0008310E000814
:1000D000310E0008310E0008090C0008310E00082E
:1000E000310E0008310E0008310E0008310E0008F4
:1000F000310E0008310E0008310E0008310E0008E4
:10010000310E0008310E0008310E0008310E0008D3
:10011000310E0008310E00081D0C0008310E0008D9
:10012000310E0008310E0008310E0008310E0008B3
:10013000310E0008310E0008310E0008310E0008A3
:10014000310E0008310E0008310E0008310E000893
:10015000310E0008310E0008310E0008310E000883
:10016000310E0008310E0008310E0008310E000873
:10017000310E0008310E0008310E000800000000AA
:08018000310E0008310E0008E9
:1001900010B5054C237833B9044B13B10448AFF3C1
:1001A00000800123237010BDE80000200000000043
:1001B000CC55000808B5034B1BB103490348AFF306
:1001C000008008BD00000000EC000020CC550008B5
:1001D00001F0FF01102A2BDB10F0070F08D010F8F8
:1001E000013B013A8B422DD010F0070F42B3F6D1FC
:1001F000F0B441EA012141EA014122F007047FF015
:1002000000070023F0E80256083C85EA010586EA6B
:10021000010685FA47F5A3FA87F586FA47F6A5FAA7
:1002200087F68EB9EED1F0BC01F0FF0102F00702B3
:1002300032B110F8013B013A83EA010313B1F8D15E
:100240000020704701387047002D06BF354603383F
:10025000073815F0010F07D1013015F4807F02BF78
:10026000013015F4C03F0130F0BC0138704700BFC9
:1002700053B94AB9002908BF00281CBF4FF0FF310D
:100280004FF0FF3000F088B9ADF1080C6DE904CEF5
:1002900000F006F8DDF804E0DDE9022304B0704761
:1002A0002DE9F047089D8E4604468846002B4AD12A
:1002B0008A42174662D9B2FA82F64EB1C6F12003DD
:1002C00001FA06F820FA03F3B74043EA0808B440FD
:1002D0004FEA174E1FFA87FCB8FBFEF1230C0EFB0A
:1002E000118843EA084301FB0CF29A4209D9FB1832
:1002F00001F1FF3080F0EA809A4240F2E780023953
:100300003B449A1AA3B2B2FBFEF00EFB102243EA62
:10031000024300FB0CFC9C4509D9FB1800F1FF329D
:1003200080F0D6809C4540F2D3803B44023840EABE
:100330000140A3EB0C0300211DB1F3400022C5E9ED
:100340000032BDE8F0878B4205D90DB1C5E9000147
:1003500000210846F5E7B3FA83F1002946D1734539
:1003600002D3824200F20581841A6EEB030201205F
:100370009046002DE5D0C5E90048E2E7002A00F0EC
:100380009080B2FA82F6002E40F0A4808A1A030C04
:100390004FEA174E80B2BCB20121B2FBFEFC0EFB4D
:1003A0001C2243EA024304FB0CF29A4207D9FB18D1
:1003B0000CF1FF3802D29A4200F2E080C4469B1A48
:1003C000B3FBFEF20EFB123340EA034302FB04F4DC
:1003D0009C4207D9FB1802F1FF3002D29C4200F286
:1003E000CA8002461B1B42EA0C40A5E7C1F1200669
:1003F0008B4022FA06F71F430EFA01F420FA06F3A7
:100400002EFA06FE4FEA1749234300FA01F81FFAB5
:1004100087FCBEFBF9F01C0C09FB10EE44EA0E440D
:1004200000FB0CFEA64502FA01F209D93C1900F1C5
:10043000FF3A80F09C80A64540F2998002383C4407
:10044000A4EB0E041FFA83FEB4FBF9F309FB13447B
:100450004EEA044403FB0CFCA44508D93C1903F103
:10046000FF3E80F08280A4457FD9023B3C4443EAB2
:100470000040A4EB0C04A0FB02EC64457346E1468B
:1004800062D35FD05DB1B8EB030264EB090404FAF8
:1004900006F622FA01F31E43CC40C5E900640021B0
:1004A0004FE7B1FBF2FC010C41EA0E4180B240EA99
:1004B00001423B4638463C46B846BE462026B1FB84
:1004C000F7F1A2EB080241EA0C4166E7014618E7A2
:1004D00010462CE7C6F120022EFA02F3B740B140D5
:1004E00020FA02F24FEA174E0A43B3FBFEF8BCB201
:1004F0000EFB1833110C41EA034108FB04F9B0402C
:1005000089454FEA104380B23ED9791808F1FF3C83
:1005100001D289451FD8A1EB0901B1FBFEF909FB06
:1005200004F80EFB191192B242EA0142424529D267
:10053000BA1809F1FF31C4D24245C2D2A9F1020171
:100540003A44BEE7F0459DD2BEEB02036CEB070CCC
:100550000138E14696E7A7EB09094944A8F1020CE6
:10056000B1FBFEF909FB04F8DBE773467FE7504671
:1005700066E70846FDE63B44023A33E7ACF1020C7D
:100580003B441CE749469CE7A1EB0901C446B1FB8B
:10059000FEF909FB04F8C4E7704700BF80B586B0D8
:1005A00000AFF860084611461A4603467B810B46A9
:1005B0003B811346FB717B89002B01D101235FE056
:1005C0007B89013B7B817A893B8913440A2B01DDBE
:1005D000012355E0FB79002B22D10023FB821AE096
:1005E0007A89FB8A1344284A32F813301B0A99B2DD
:1005F000FB685A1CFA60CAB21A707A89FB8A1344E3
:10060000214A32F81310FB685A1CFA60CAB21A70F9
:10061000FB8A0133FB82FA8A3B899A42E0D32EE0BF
:10062000FB79012B2BD10023FB8222E0FB685A1CB3
:10063000FA601B7819467A89FB8A13440A0291B240
:10064000114A22F81310FB685A1CFA6019787A894B
:10065000FB8A13440C4A32F8132008467989FB8A36
:100660000B44024391B2084A22F81310FB8A01336B
:10067000FB82FA8A3B899A42D8D300F007F800231C
:1006800018461837BD4680BDDC01002080B500AF9C
:10069000144B1B88002B14BF01230023DBB21A4626
:1006A0004FF40051104800F077FF0E4B5B88002B91
:1006B00014BF01230023DBB21A464FF480410A48DD
:1006C00000F06AFF074B9B88002B14BF0123002317
:1006D000DBB21A464FF40041034800F05DFF00BF53
:1006E00080BD00BFDC0100200008024080B485B05E
:1006F00000AFF860084611461A4603467B810B4658
:100700003B811346FB71012318461437BD465DF843
:10071000047B704780B483B000AF78600B467B8069
:1007200013463B80012318460C37BD465DF8047B19
:10073000704780B483B000AF78600B467B8013466F
:100740003B80012318460C37BD465DF8047B70479B
:1007500080B582B002AF00F06DFB00F017F800F03A
:1007600015F900F0E9F800F07BF800F0AFF800238D
:1007700000934FF4165300220121002002F0CEFE18
:1007800002F048FF02F062FFFCE7000080B594B081
:1007900000AF07F1200330220021184604F0A7F82B
:1007A00007F10C0300221A605A609A60DA601A613D
:1007B0000023BB60284B1B6C274A43F08053136413
:1007C000254B1B6C03F08053BB60BB6800237B6030
:1007D000224B1B68214A43F4804313601F4B1B6864
:1007E00003F480437B607B6802233B620123FB624E
:1007F00010233B630223BB630023FB6308233B649A
:10080000A8237B640223BB640423FB6407F1200359
:10081000184600F0DBFE0346002B01D000F008F97B
:100820000F23FB6002233B6100237B614FF4A05345
:10083000BB614FF48053FB6107F10C03052118469F
:1008400001F03CF90346002B01D000F0F1F800BFA5
:100850005037BD4680BD00BF0038024000700040E8
:1008600080B582B000AF3B4600221A605A60154B3B
:10087000154A1A60134B42F2CF025A60114B002204
:100880009A60104B2722DA600E4B00229A610D48C5
:1008900001F0F4FA0346002B01D000F0C9F8002360
:1008A0003B6000237B603B461946064801F0A4FDEF
:1008B0000346002B01D000F0BBF800BF0837BD464F
:1008C00080BD00BF040100200010004080B582B050
:1008D00000AF3B4600221A605A60154B154A1A6059
:1008E000134B42F2CF025A60114B00229A60104B18
:1008F0003B22DA600E4B00229A610D4801F0BEFAED
:100900000346002B01D000F093F800233B60002346
:100910007B603B461946064801F06EFD0346002BFE
:1009200001D000F085F800BF0837BD4680BD00BF8C
:100930004C0100200014004080B500AF114B124A5A
:100940001A60104B4FF416525A600E4B00229A60F8
:100950000C4B0022DA600B4B00221A61094B0C226F
:100960005A61084B00229A61064B0022DA61054861
:1009700001F0D2FD0346002B01D000F059F800BF72
:1009800080BD00BF940100200044004080B588B0C5
:1009900000AF07F10C0300221A605A609A60DA6017
:1009A0001A610023BB60204B1B6B1F4A43F00403FA
:1009B00013631D4B1B6B03F00403BB60BB68002378
:1009C0007B60194B1B6B184A43F001031363164BF2
:1009D0001B6B03F001037B607B6800233B60124BC1
:1009E0001B6B114A43F0080313630F4B1B6B03F09F
:1009F00008033B603B6800224FF460410B4800F065
:100A0000CBFD4FF46043FB6001233B6100237B611E
:100A10000023BB6107F10C031946044800F020FCD9
:100A200000BF2037BD4680BD0038024000080240AC
:100A300080B400AF72B600BF00BFFDE780B483B0E2
:100A400000AF00237B60104B5B6C0F4A43F4804384
:100A500053640D4B5B6C03F480437B607B68002325
:100A60003B60094B1B6C084A43F080531364064BF0
:100A70001B6C03F080533B603B6800BF0C37BD46E6
:100A80005DF8047B704700BF0038024080B584B039
:100A900000AF78607B681B68184A934216D1002328
:100AA000FB60174B1B6C164A43F010031364144B86
:100AB0001B6C03F01003FB60FB6800220021362052
:100AC00000F005FB362000F01EFB12E07B681B687F
:100AD0000C4A93420DD10023BB60094B1B6C084AA2
:100AE00043F020031364064B1B6C03F02003BB6030
:100AF000BB6800BF1037BD4680BD00BF001000407E
:100B0000003802400014004080B58AB000AF786021
:100B100007F1140300221A605A609A60DA601A61C1
:100B20007B681B681D4A934233D100233B611C4BF9
:100B30001B6C1B4A43F400331364194B1B6C03F406
:100B400000333B613B690023FB60154B1B6B144A70
:100B500043F008031363124B1B6B03F00803FB60A5
:100B6000FB6860237B610223BB610023FB610323DD
:100B70003B6207237B6207F114031946094800F022
:100B80006FFB00220021262000F0A1FA262000F0B1
:100B9000BAFA00BF2837BD4680BD00BF0044004000
:100BA00000380240000C024080B400AF00BFFDE7F7
:100BB00080B400AF00BFFDE780B400AF00BFFDE729
:100BC00080B400AF00BFFDE780B400AF00BFFDE719
:100BD00080B400AF00BFBD465DF8047B704780B4B1
:100BE00000AF00BFBD465DF8047B704780B400AF26
:100BF00000BFBD465DF8047B704780B500AF00F0D4
:100C00006BF900BF80BD000080B500AF024801F065
:100C10005FFD00BF80BD00BF9401002080B500AF24
:100C2000024801F01AFA00BF80BD00BF0401002095
:100C300080B400AF01231846BD465DF8047B7047C1
:100C400080B582B000AF7860396003F09FFE034644
:100C500016221A604FF0FF3318460837BD4680BD94
:100C600080B582B000AF78604FF0FF317868FFF751
:100C7000E7FF00BFFDE780B586B000AFF860B96060
:100C80007A6000237B610AE0AFF300800146BB6815
:100C90005A1CBA60CAB21A707B6901337B617A69E7
:100CA0007B689A42F0DB7B6818461837BD4680BDEA
:100CB00080B586B000AFF860B9607A6000237B61D0
:100CC00009E0BB685A1CBA601B781846AFF3008075
:100CD0007B6901337B617A697B689A42F1DB7B68CF
:100CE00018461837BD4680BD80B483B000AF786029
:100CF0004FF0FF3318460C37BD465DF8047B704754
:100D000080B483B000AF786039603B684FF4005224
:100D10005A60002318460C37BD465DF8047B7047C7
:100D200080B483B000AF7860012318460C37BD460D
:100D30005DF8047B704780B485B000AFF860B9609F
:100D40007A60002318461437BD465DF8047B70476F
:100D500080B586B000AF7860144A154BD31A7B611A
:100D60007B693B61134B1B68002B02D1114B124A6C
:100D70001A60104B1A687B6813443A699A4207D28A
:100D800003F004FE03460C221A604FF0FF3309E023
:100D9000084B1B68FB60074B1A687B681344054AC5
:100DA0001360FB6818461837BD4680BD000002205E
:100DB00000040000F0010020A804002080B400AF6F
:100DC000064BD3F88830054A43F47003C2F88830E4
:100DD00000BFBD465DF8047B704700BF00ED00E03A
:100DE000DFF834D0FFF7EAFF0C480D490D4A002325
:100DF00002E0D458C4500433C4188C42F9D30A4AD0
:100E00000A4C002301E013600432A242FBD303F03A
:100E1000C3FDFFF79DFC704700000220000000208A
:100E2000E8000020CC590008E8000020A8040020B9
:100E3000FEE7000080B500AF0E4B1B680D4A43F47F
:100E4000007313600B4B1B680A4A43F48063136002
:100E5000084B1B68074A43F480731360032000F0BB
:100E60002BF90F2000F008F8FFF7E8FD00231846E3
:100E700080BD00BF003C024080B582B000AF78600A
:100E8000124B1A68124B1B7819464FF47A73B3FB56
:100E9000F1F3B2FBF3F3184600F043F90346002BDD
:100EA00001D001230EE07B680F2B0AD8002279685D
:100EB0004FF0FF3000F00BF9064A7B681360002307
:100EC00000E0012318460837BD4680BD0000002021
:100ED000080000200400002080B400AF064B1B78FF
:100EE0001A46064B1B681344044A136000BFBD46F4
:100EF0005DF8047B704700BF08000020F40100206B
:100F000080B400AF034B1B681846BD465DF8047BF8
:100F1000704700BFF401002080B485B000AF786056
:100F20007B6803F00703FB600C4BDB68BB60BA68AF
:100F30004FF6FF031340BB60FB681A02BB68134304
:100F400043F0BF6343F40033BB60044ABB68D36023
:100F500000BF1437BD465DF8047B704700ED00E02C
:100F600080B400AF044BDB681B0A03F0070318468C
:100F7000BD465DF8047B704700ED00E080B483B0AF
:100F800000AF0346FB7197F90730002B0BDBFB79B1
:100F900003F01F02074997F907305B09012000FAA7
:100FA00002F241F8232000BF0C37BD465DF8047BF8
:100FB000704700BF00E100E080B483B000AF03469B
:100FC0003960FB7197F90730002B0ADB3B68DAB216
:100FD0000C4997F907301201D2B20B4483F8002371
:100FE0000AE03B68DAB20849FB7903F00F03043BDF
:100FF0001201D2B20B441A7600BF0C37BD465DF821
:10100000047B704700E100E000ED00E080B489B0AF
:1010100000AFF860B9607A60FB6803F00703FB611A
:10102000FB69C3F10703042B28BF0423BB61FB69E1
:101030000433062B02D9FB69033B00E000237B61EC
:101040004FF0FF32BB6902FA03F3DA43BB681A4080
:101050007B699A404FF0FF317B6901FA03F3D94372
:101060007B680B40134318462437BD465DF8047B6C
:101070007047000080B582B000AF78607B68013BAC
:10108000B3F1807F01D301230FE00A4A7B68013B63
:1010900053600F214FF0FF30FFF78EFF054B00220A
:1010A0009A60044B07221A60002318460837BD4691
:1010B00080BD00BF10E000E080B582B000AF786076
:1010C0007868FFF729FF00BF0837BD4680BD80B5AF
:1010D00086B000AF0346B9607A60FB7300237B6182
:1010E000FFF73EFF78617A68B9687869FFF78EFF8D
:1010F000024697F90F3011461846FFF75DFF00BF13
:101100001837BD4680BD80B582B000AF0346FB7185
:1011100097F907301846FFF731FF00BF0837BD4683
:1011200080BD80B582B000AF78607868FFF7A2FF1D
:10113000034618460837BD4680BD80B584B000AF71
:1011400078607B689B6DFB60FFF7DAFEB8607B68B8
:1011500093F83530DBB2022B08D07B6880225A65C9
:101160007B68002283F83420012352E07B681B68EF
:101170001A687B681B6822F016021A607B681B687D
:101180005A697B681B6822F080025A617B681B6C7D
:10119000002B03D17B689B6C002B07D07B681B68FE
:1011A0001A687B681B6822F008021A607B681B685B
:1011B0001A687B681B6822F001021A6013E0FFF7CF
:1011C0009FFE0246BB68D31A052B0CD97B682022F0
:1011D0005A657B68032283F835207B68002283F8F8
:1011E0003420032315E07B681B681B6803F00103B0
:1011F000002BE4D17B68DB6D3F229A40FB689A604C
:101200007B68012283F835207B68002283F8342034
:10121000002318461037BD4680BD80B483B000AFB0
:1012200078607B6893F83530DBB2022B04D07B68A2
:1012300080225A6501230CE07B68052283F8352063
:101240007B681B681A687B681B6822F001021A60C1
:10125000002318460C37BD465DF8047B704700003C
:1012600080B489B000AF7860396000237B610023CF
:101270003B610023BB610023FB616BE10122FB6941
:1012800002FA03F37B613B681B687A6913403B6198
:101290003A697B699A4240F05A813B685B6803F087
:1012A0000303012B05D03B685B6803F00303022BAB
:1012B00030D17B689B68BB61FB695B00032202FA4B
:1012C00003F3DB43BA691340BB613B68DA68FB692F
:1012D0005B0002FA03F3BA691343BB617B68BA6926
:1012E0009A607B685B68BB610122FB6902FA03F3C9
:1012F000DB43BA691340BB613B685B681B0903F0C1
:101300000102FB6902FA03F3BA691343BB617B680C
:10131000BA695A603B685B6803F00303032B17D07C
:101320007B68DB68BB61FB695B00032202FA03F3A5
:10133000DB43BA691340BB613B689A68FB695B0099
:1013400002FA03F3BA691343BB617B68BA69DA60D6
:101350003B685B6803F00303022B23D1FB69DA08C7
:101360007B68083253F82230BB61FB6903F0070346
:101370009B000F2202FA03F3DB43BA691340BB61FF
:101380003B681A69FB6903F007039B0002FA03F349
:10139000BA691343BB61FB69DA087B680832B96933
:1013A00043F822107B681B68BB61FB695B0003226A
:1013B00002FA03F3DB43BA691340BB613B685B6825
:1013C00003F00302FB695B0002FA03F3BA691343FB
:1013D000BB617B68BA691A603B685B6803F44033A1
:1013E000002B00F0B4800023FB60604B5B6C5F4A15
:1013F00043F4804353645D4B5B6C03F48043FB60B8
:10140000FB685B4AFB699B08023352F82330BB61DF
:10141000FB6903F003039B000F2202FA03F3DB4393
:10142000BA691340BB617B68524A93422BD07B68F8
:10143000514A934225D07B68504A93421FD07B6823
:101440004F4A934219D07B684E4A934213D07B682F
:101450004D4A93420DD07B684C4A934207D07B683B
:101460004B4A934201D107230EE008230CE00623E8
:101470000AE0052308E0042306E0032304E0022336
:1014800002E0012300E00023FA6902F00302920067
:101490009340BA691343BB613549FB699B0802332A
:1014A000BA6941F823203B4B9B68BB613B69DB4336
:1014B000BA691340BB613B685B6803F48013002B7F
:1014C00003D0BA693B691343BB61324ABB6993607D
:1014D000304BDB68BB613B69DB43BA691340BB61DE
:1014E0003B685B6803F40013002B03D0BA693B69C7
:1014F0001343BB61274ABB69D360264B5B68BB6162
:101500003B69DB43BA691340BB613B685B6803F42A
:101510000033002B03D0BA693B691343BB611D4AFA
:10152000BB6953601B4B1B68BB613B69DB43BA69FA
:101530001340BB613B685B6803F48033002B03D02E
:10154000BA693B691343BB61124ABB691360FB690B
:101550000133FB61FB690F2B7FF690AE00BF00BF2C
:101560002437BD465DF8047B704700BF0038024059
:101570000038014000000240000402400008024020
:10158000000C02400010024000140240001802400B
:10159000001C0240003C014080B483B000AF786082
:1015A0000B467B8013467B707B78002B03D07A88B8
:1015B0007B689A6103E07B881A047B689A6100BFAC
:1015C0000C37BD465DF8047B7047000080B586B0DF
:1015D00000AF78607B68002B01D1012367E27B6854
:1015E0001B6803F00103002B75D0884B9B6803F048
:1015F0000C03042B0CD0854B9B6803F00C03082BC9
:1016000012D1824B5B6803F48003B3F5800F0BD1DA
:101610007E4B1B6803F40033002B5BD07B685B6858
:10162000002B57D1012342E27B685B68B3F5803F12
:1016300006D1764B1B68754A43F4803313601DE076
:101640007B685B68B3F5A02F0CD1704B1B686F4AA9
:1016500043F4802313606D4B1B686C4A43F4803362
:1016600013600BE0694B1B68684A23F480331360F6
:10167000664B1B68654A23F4802313607B685B68B4
:10168000002B13D0FFF73CFC386108E0FFF738FC73
:1016900002463B69D31A642B01D9032307E25B4B53
:1016A0001B6803F40033002BF0D014E0FFF728FC94
:1016B000386108E0FFF724FC02463B69D31A642B2B
:1016C00001D90323F3E1514B1B6803F40033002BD2
:1016D000F0D100E000BF7B681B6803F00203002B21
:1016E00063D04A4B9B6803F00C03002B0BD0474B95
:1016F0009B6803F00C03082B1CD1444B5B6803F47C
:101700008003002B16D1414B1B6803F00203002B12
:1017100005D07B68DB68012B01D00123C7E13B4B7F
:101720001B6823F0F8027B681B69DB003749134311
:101730000B603AE07B68DB68002B20D0344B012241
:101740001A60FFF7DDFB386108E0FFF7D9FB0246BE
:101750003B69D31A022B01D90323A8E12B4B1B6849
:1017600003F00203002BF0D0284B1B6823F0F80293
:101770007B681B69DB00254913430B6015E0244B94
:1017800000221A60FFF7BCFB386108E0FFF7B8FBE6
:1017900002463B69D31A022B01D9032387E11B4B75
:1017A0001B6803F00203002BF0D17B681B6803F079
:1017B0000803002B36D07B685B69002B16D0154BD5
:1017C00001221A60FFF79CFB386108E0FFF798FBE5
:1017D00002463B69D31A022B01D9032367E10B4B65
:1017E0005B6F03F00203002BF0D01BE0094B0022DB
:1017F0001A60FFF785FB38610EE0FFF781FB0246B8
:101800003B69D31A022B07D9032350E10038024069
:1018100000004742800E4742884B5B6F03F0020393
:10182000002BEAD17B681B6803F00403002B00F057
:1018300097800023FB75814B1B6C03F08053002BBA
:101840000FD10023BB607D4B1B6C7C4A43F080535F
:1018500013647A4B1B6C03F08053BB60BB6801239D
:10186000FB75774B1B6803F48073002B18D1744B06
:101870001B68734A43F480731360FFF741FB3861C0
:1018800008E0FFF73DFB02463B69D31A022B01D962
:1018900003230CE16A4B1B6803F48073002BF0D028
:1018A0007B689B68012B06D1644B1B6F634A43F036
:1018B000010313671CE07B689B68052B0CD15F4B11
:1018C0001B6F5E4A43F0040313675C4B1B6F5B4A5C
:1018D00043F0010313670BE0584B1B6F574A23F08B
:1018E00001031367554B1B6F544A23F0040313671E
:1018F0007B689B68002B15D0FFF702FB38610AE07C
:10190000FFF7FEFA02463B69D31A41F2883293424E
:1019100001D90323CBE0494B1B6F03F00203002BDB
:10192000EED014E0FFF7ECFA38610AE0FFF7E8FACE
:1019300002463B69D31A41F28832934201D903230C
:10194000B5E03E4B1B6F03F00203002BEED1FB7D95
:10195000012B05D1394B1B6C384A23F0805313649B
:101960007B689B69002B00F0A180344B9B6803F0DF
:101970000C03082B5CD07B689B69022B41D1314B57
:1019800000221A60FFF7BCFA386108E0FFF7B8FAE6
:1019900002463B69D31A022B01D9032387E0274B68
:1019A0001B6803F00073002BF0D17B68DA697B6859
:1019B0001B6A1A437B685B6A9B011A437B689B6ABC
:1019C0005B08013B1B041A437B68DB6A1B061B494F
:1019D00013434B601B4B01221A60FFF791FA3861E9
:1019E00008E0FFF78DFA02463B69D31A022B01D9B2
:1019F00003235CE0114B1B6803F00073002BF0D055
:101A000054E0104B00221A60FFF77AFA386108E0C0
:101A1000FFF776FA02463B69D31A022B01D903235A
:101A200045E0064B1B6803F00073002BF0D13DE04E
:101A30007B689B69012B07D1012338E00038024005
:101A400000700040600047421B4B5B68FB607B6896
:101A50009B69012B28D0FB6803F480027B68DB695B
:101A60009A4221D1FB6803F03F027B681B6A9A42CD
:101A70001AD1FA6847F6C07313407A68526A920125
:101A8000934211D1FB6803F440327B689B6A5B0888
:101A9000013B1B049A4207D1FB6803F070627B682C
:101AA000DB6A1B069A4201D0012300E0002318469E
:101AB0001837BD4680BD00BF0038024080B584B0F5
:101AC00000AF786039607B68002B01D10123CCE046
:101AD000684B1B6803F007033A689A420CD9654BC0
:101AE0003A68D2B21A70634B1B6803F007033A6876
:101AF0009A4201D00123B8E07B681B6803F002031F
:101B0000002B20D07B681B6803F00403002B05D05A
:101B1000594B9B68584A43F4E05393607B681B68B9
:101B200003F00803002B05D0534B9B68524A43F443
:101B300060439360504B9B6823F0F0027B689B6886
:101B40004D4913438B607B681B6803F00103002B36
:101B500044D07B685B68012B07D1474B1B6803F4BB
:101B60000033002B19D101237FE07B685B68022BD7
:101B700003D07B685B68032B07D13F4B1B6803F0E6
:101B80000073002B09D101236FE03B4B1B6803F06E
:101B90000203002B01D1012367E0374B9B6823F040
:101BA00003027B685B68344913438B60FFF7A8F935
:101BB000F8600AE0FFF7A4F90246FB68D31A41F285
:101BC0008832934201D903234FE02B4B9B6803F0EB
:101BD0000C027B685B689B009A42EBD1254B1B682B
:101BE00003F007033A689A420CD2224B3A68D2B209
:101BF0001A70204B1B6803F007033A689A4201D021
:101C0000012332E07B681B6803F00403002B08D03B
:101C1000194B9B6823F4E0527B68DB681649134339
:101C20008B607B681B6803F00803002B09D0124B04
:101C30009B6823F460427B681B69DB000E491343F9
:101C40008B6000F021F802460B4B9B681B0903F0E8
:101C50000F030A49CB5C22FA03F3094A1360094BCC
:101C60001B681846FFF708F9002318461037BD46D1
:101C700080BD00BF003C024000380240E45600082E
:101C800000000020040000202DE9B04F90B000AF0C
:101C900000237B630023FB6300233B630023BB63C0
:101CA000594B9B6803F00C03082B0DD0082B00F256
:101CB000A180002B02D0042B03D09BE0534BBB63CD
:101CC0009BE0534BBB6398E04F4B5B6803F03F03D3
:101CD0007B634D4B5B6803F48003002B28D04A4B99
:101CE0005B689B0900223B627A623B6AC3F308008F
:101CF0000021474B03FB01F2002300FB03F31344D5
:101D0000434AA0FB0212FA620A46BA62FA6A134414
:101D1000FB627B6B0022BB61FA61D7E90623D7E93E
:101D20000A01FEF7A5FA02460B461346FB6353E091
:101D3000354B5B689B0900223B617A613B69C3F3C9
:101D4000080A4FF0000B52465B464FF000004FF080
:101D50000001590141EAD261500102460B46B2EB43
:101D60000A0863EB0B094FF000024FF000034FEA43
:101D7000891343EA98634FEA8812B2EB080463EBD5
:101D800009054FF000024FF00003EB0043EA5473E3
:101D9000E20014461D4614EB0A033B6045EB0B03BF
:101DA0007B604FF000024FF00003D7E90045294661
:101DB0008B02214643EA915321468A021046194676
:101DC0007B6B0022BB60FA60D7E90223FEF750FA72
:101DD00002460B461346FB630B4B5B681B0C03F080
:101DE000030301335B003B63FA6B3B6BB2FBF3F322
:101DF000BB6302E0054BBB6300BFBB6B18464037BB
:101E0000BD46BDE8B08F00BF003802400024F4009A
:101E100040787D0180B400AF034B1B681846BD4677
:101E20005DF8047B704700BF0000002080B500AF64
:101E3000FFF7F0FF0246054B9B689B0A03F0070380
:101E40000349CB5C22FA03F3184680BD00380240F8
:101E5000F456000880B500AFFFF7DCFF0246054BE3
:101E60009B685B0B03F007030349CB5C22FA03F387
:101E7000184680BD00380240F456000880B582B094
:101E800000AF78607B68002B01D1012341E07B68C3
:101E900093F83D30DBB2002B06D17B68002283F83B
:101EA0003C207868FEF7F2FD7B68022283F83D2033
:101EB0007B681A687B6804331946104600F0F0F915
:101EC0007B68012283F846207B68012283F83E204C
:101ED0007B68012283F83F207B68012283F8402041
:101EE0007B68012283F841207B68012283F842202D
:101EF0007B68012283F843207B68012283F8442019
:101F00007B68012283F845207B68012283F83D200D
:101F1000002318460837BD4680BD000080B485B058
:101F200000AF78607B6893F83D30DBB2012B01D0C5
:101F300001234EE07B68022283F83D207B681B680A
:101F4000DA687B681B6842F00102DA607B681B6814
:101F5000234A934222D07B681B68B3F1804F1DD087
:101F60007B681B681F4A934218D07B681B681E4A17
:101F7000934213D07B681B681C4A93420ED07B6847
:101F80001B681B4A934209D07B681B68194A93421D
:101F900004D07B681B68184A934211D17B681B6888
:101FA0009B6803F00703FB60FB68062B10D07B687F
:101FB0001B681A687B681B6842F001021A6007E020
:101FC0007B681B681A687B681B6842F001021A6014
:101FD000002318461437BD465DF8047B704700BFE8
:101FE000000001400004004000080040000C0040D8
:101FF00000040140004001400018004080B483B05C
:1020000000AF78607B681B68DA687B681B6822F029
:102010000102DA607B681B681A6A41F211131340EF
:10202000002B0FD17B681B681A6A40F244431340AF
:10203000002B07D17B681B681A687B681B6822F03D
:1020400001021A607B68012283F83D2000231846B4
:102050000C37BD465DF8047B704780B584B000AF97
:1020600078607B681B68DB68FB607B681B681B69AA
:10207000BB60BB6803F00203002B20D0FB6803F0B9
:102080000203002B1BD07B681B686FF002021A61F1
:102090007B6801221A777B681B689B6903F0030346
:1020A000002B03D0786800F0DCF805E0786800F0D9
:1020B000CEF8786800F0DFF87B6800221A77BB68FA
:1020C00003F00403002B20D0FB6803F00403002B73
:1020D0001BD07B681B686FF004021A617B680222C8
:1020E0001A777B681B689B6903F44073002B03D04D
:1020F000786800F0B6F805E0786800F0A8F878682D
:1021000000F0B9F87B6800221A77BB6803F0080377
:10211000002B20D0FB6803F00803002B1BD07B684A
:102120001B686FF008021A617B6804221A777B68CB
:102130001B68DB6903F00303002B03D0786800F011
:1021400090F805E0786800F082F8786800F093F87D
:102150007B6800221A77BB6803F01003002B20D0A5
:10216000FB6803F01003002B1BD07B681B686FF02B
:1021700010021A617B6808221A777B681B68DB698A
:1021800003F44073002B03D0786800F06AF805E090
:10219000786800F05CF8786800F06DF87B680022E1
:1021A0001A77BB6803F00103002B0CD0FB6803F027
:1021B0000103002B07D07B681B686FF001021A61D6
:1021C000786800F03AF8BB6803F08003002B0CD06D
:1021D000FB6803F08003002B07D07B681B686FF05F
:1021E00080021A61786800F08DF9BB6803F0400343
:1021F000002B0CD0FB6803F04003002B07D07B685A
:102200001B686FF040021A61786800F03EF8BB6806
:1022100003F02003002B0CD0FB6803F02003002BFD
:1022200007D07B681B686FF020021A61786800F0A5
:102230005FF900BF1037BD4680BD80B483B000AFEA
:10224000786000BF0C37BD465DF8047B704780B4F2
:1022500083B000AF786000BF0C37BD465DF8047BEB
:10226000704780B483B000AF786000BF0C37BD46C4
:102270005DF8047B704780B483B000AF786000BF26
:102280000C37BD465DF8047B704780B483B000AF67
:10229000786000BF0C37BD465DF8047B70470000D6
:1022A00080B485B000AF786039607B681B68FB60E4
:1022B0007B68464A934213D07B68B3F1804F0FD0BE
:1022C0007B68434A93420BD07B68424A934207D0D3
:1022D0007B68414A934203D07B68404A934208D1CD
:1022E000FB6823F07003FB603B685B68FA6813438C
:1022F000FB607B68354A93422BD07B68B3F1804FFB
:1023000027D07B68324A934223D07B68314A93427C
:102310001FD07B68304A93421BD07B682F4A934280
:1023200017D07B682E4A934213D07B682D4A934284
:102330000FD07B682C4A93420BD07B682B4A934288
:1023400007D07B682A4A934203D07B68294A93428C
:1023500008D1FB6823F44073FB603B68DB68FA68D4
:102360001343FB60FB6823F080023B685B69134307
:10237000FB607B68FA681A603B689A687B68DA627F
:102380003B681A687B689A627B68104A934203D064
:102390007B68124A934203D13B681A697B681A63CF
:1023A0007B6801225A617B681B6903F00103012BE2
:1023B00005D17B681B6923F001027B681A6100BFAD
:1023C0001437BD465DF8047B704700BF0000014034
:1023D0000004004000080040000C004000040140E0
:1023E0000040014000440140004801400018004006
:1023F000001C00400020004080B485B000AF786031
:1024000039607B6893F83C30012B01D102235AE0FC
:102410007B68012283F83C207B68022283F83D2000
:102420007B681B685B68FB607B681B689B68BB60A4
:10243000FB6823F07003FB603B681B68FA6813437A
:10244000FB607B681B68FA685A607B681B68214ADE
:10245000934222D07B681B68B3F1804F1DD07B680C
:102460001B681D4A934218D07B681B681B4A934225
:1024700013D07B681B681A4A93420ED07B681B6896
:10248000184A934209D07B681B68174A934204D0CC
:102490007B681B68154A93420CD1BB6823F080030C
:1024A000BB603B685B68BA681343BB607B681B68B2
:1024B000BA689A607B68012283F83D207B6800221D
:1024C00083F83C20002318461437BD465DF8047B92
:1024D000704700BF000001400004004000080040B9
:1024E000000C004000040140004001400018004082
:1024F00080B483B000AF786000BF0C37BD465DF894
:10250000047B704780B483B000AF786000BF0C37A5
:10251000BD465DF8047B704780B582B000AF78603F
:102520007B68002B01D1012342E07B6893F84130A6
:10253000DBB2002B06D17B68002283F8402078684C
:10254000FEF7E2FA7B68242283F841207B681B684F
:10255000DA687B681B6822F40052DA60786800F061
:1025600069FD7B681B681A697B681B6822F49042CE
:102570001A617B681B685A697B681B6822F02A0213
:102580005A617B681B68DA687B681B6842F40052FA
:10259000DA607B6800225A647B68202283F841203D
:1025A0007B68202283F842207B6800225A63002344
:1025B00018460837BD4680BD80B58AB002AFF860C6
:1025C000B9603B601346FB8000237B61FB6893F896
:1025D0004130DBB2202B75D1BB68002B02D0FB88C9
:1025E000002B01D101236EE0FB6800225A64FB68D6
:1025F000212283F84120FEF783FC7861FB68FA888A
:102600009A84FB68FA88DA84FB689B68B3F5805F7C
:1026100008D1FB681B69002B04D10023FB61BB6858
:10262000BB6103E0BB68FB610023BB612EE03B683C
:1026300000937B6900228021F86800F005FB0346C7
:10264000002B05D0FB68202283F8412003233AE0C9
:10265000FB69002B0BD1BB691B881A46FB681B6802
:10266000C2F308025A60BB690233BB6107E0FB6931
:102670001A78FB681B685A60FB690133FB61FB68D1
:10268000DB8C9BB2013B9AB2FB68DA84FB68DB8C83
:102690009BB2002BCBD13B6800937B690022402189
:1026A000F86800F0D1FA0346002B05D0FB68202221
:1026B00083F84120032306E0FB68202283F84120B1
:1026C000002300E0022318462037BD4680BD0000ED
:1026D00080B5BAB000AF78607B681B681B68C7F82C
:1026E000E4307B681B68DB68C7F8E0307B681B68F8
:1026F0005B69C7F8DC300023C7F8D8300023C7F87F
:10270000D430D7F8E43003F00F03C7F8D830D7F847
:10271000D830002B0FD1D7F8E43003F02003002B82
:1027200009D0D7F8E03003F02003002B03D07868FD
:1027300000F0C2FB5BE2D7F8D830002B00F0DE805F
:10274000D7F8DC3003F00103002B06D1D7F8E030D6
:1027500003F49073002B00F0D180D7F8E43003F03D
:102760000103002B0BD0D7F8E03003F48073002B6B
:1027700005D07B685B6C43F001027B685A64D7F834
:10278000E43003F00403002B0BD0D7F8DC3003F067
:102790000103002B05D07B685B6C43F002027B6871
:1027A0005A64D7F8E43003F00203002B0BD0D7F8BB
:1027B000DC3003F00103002B05D07B685B6C43F039
:1027C00004027B685A64D7F8E43003F00803002B56
:1027D00011D0D7F8E03003F02003002B05D1D7F853
:1027E000DC3003F00103002B05D07B685B6C43F009
:1027F00008027B685A647B685B6C002B00F0F281F6
:10280000D7F8E43003F02003002B08D0D7F8E030ED
:1028100003F02003002B02D0786800F04DFB7B68AA
:102820001B685B6903F04003402B0CBF01230023AE
:10283000DBB2C7F8D4307B685B6C03F00803002B75
:1028400003D1D7F8D430002B4FD0786800F055FA78
:102850007B681B685B6903F04003402B41D17B68B8
:102860001B681433C7F89C30D7F89C3053E8003FFE
:10287000C7F89830D7F8983023F04003C7F8D03025
:102880007B681B681433D7F8D020C7F8A820C7F896
:10289000A430D7F8A410D7F8A82041E80023C7F83F
:1028A000A030D7F8A030002BD9D17B68DB6B002B90
:1028B00013D07B68DB6B7E4A1A657B68DB6B18463E
:1028C000FEF7ABFC0346002B16D07B68DB6B1B6D61
:1028D0007A68D26B104698470EE0786800F09EF94F
:1028E0000AE0786800F09AF906E0786800F096F956
:1028F0007B6800225A6475E100BF73E17B681B6B43
:10290000012B40F04F81D7F8E43003F01003002B87
:1029100000F04881D7F8E03003F01003002B00F0FE
:1029200041810023BB607B681B681B68BB607B68C0
:102930001B685B68BB60BB687B681B685B6903F0F6
:102940004003402B40F0B6807B68DB6B1B685B6804
:10295000A7F8BE30B7F8BE30002B00F045817B6889
:102960009B8DB7F8BE209A4280F03E817B68B7F815
:10297000BE20DA857B68DB6BDB69B3F5807F00F016
:1029800088807B681B680C33C7F88830D7F888309C
:1029900053E8003FC7F88430D7F8843023F48073BD
:1029A000C7F8B8307B681B680C33D7F8B820C7F875
:1029B0009420C7F89030D7F89010D7F8942041E8C9
:1029C0000023C7F88C30D7F88C30002BD9D17B6826
:1029D0001B6814337B677B6F53E8003F3B673B6F9B
:1029E00023F00103C7F8B4307B681B681433D7F8B1
:1029F000B420C7F88020FB67F96FD7F8802041E842
:102A00000023BB67BB6F002BE1D17B681B681433CD
:102A10003B663B6E53E8003FFB65FB6D23F04003D4
:102A2000C7F8B0307B681B681433D7F8B020FA665B
:102A3000BB66B96EFA6E41E800237B667B6E002BA5
:102A4000E3D17B68202283F842207B6800221A634E
:102A50007B681B680C33FB64FB6C53E8003FBB6472
:102A6000BB6C23F01003C7F8AC307B681B680C33D9
:102A7000D7F8AC20BA657B65796DBA6D41E8002363
:102A80003B653B6D002BE3D17B68DB6B1846FEF7A3
:102A900054FB7B6802225A637B689A8D7B68DB8DCE
:102AA0009BB2D31A9BB21946786800F0C1F89BE03C
:102AB000C12D00087B689A8D7B68DB8D9BB2D31A91
:102AC000A7F8CE307B68DB8D9BB2002B00F08E80A8
:102AD000B7F8CE30002B00F089807B681B680C3380
:102AE000BB63BB6B53E8003F7B637B6B23F490734A
:102AF000C7F8C8307B681B680C33D7F8C8207A64E5
:102B00003B64396C7A6C41E80023FB63FB6B002B60
:102B1000E3D17B681B6814337B627B6A53E8003F18
:102B20003B623B6A23F00103C7F8C4307B681B6833
:102B30001433D7F8C4203A63FB62F96A3A6B41E870
:102B40000023BB62BB6A002BE3D17B68202283F8A1
:102B500042207B6800221A637B681B680C333B6150
:102B60003B6953E8003FFB60FB6823F01003C7F8A4
:102B7000C0307B681B680C33D7F8C020FA61BB619A
:102B8000B969FA6941E800237B617B69002BE3D1D5
:102B90007B6802225A63B7F8CE301946786800F095
:102BA00047F823E0D7F8E43003F08003002B09D086
:102BB000D7F8E03003F08003002B03D0786800F0F2
:102BC00013F914E0D7F8E43003F04003002B0ED0E3
:102BD000D7F8E03003F04003002B08D0786800F00D
:102BE00053F904E000BF02E000BF00E000BFE83797
:102BF000BD4680BD80B483B000AF786000BF0C37A5
:102C0000BD465DF8047B704780B483B000AF786048
:102C100000BF0C37BD465DF8047B704780B483B0BD
:102C200000AF786000BF0C37BD465DF8047B70478D
:102C300080B483B000AF78600B467B8000BF0C3758
:102C4000BD465DF8047B704780B586B000AFF86084
:102C5000B9603B601346FB713BE03B6AB3F1FF3F59
:102C600037D0FEF74DF902463B68D31A3A6A9A42CA
:102C700002D33B6A002B01D103233AE0FB681B68B7
:102C8000DB6803F00403002B23D0BB68802B20D02B
:102C9000BB68402B1DD0FB681B681B6803F0080352
:102CA000082B16D100237B61FB681B681B687B61C6
:102CB000FB681B685B687B617B69F86800F01DF846
:102CC000FB6808225A64FB68002283F84020012335
:102CD0000FE0FB681B681A68BB681340BA689A4229
:102CE0000CBF01230023DBB21A46FB799A42B4D011
:102CF000002318461837BD4680BD80B495B000AF9C
:102D000078607B681B680C337B637B6B53E8003F08
:102D10003B633B6B23F49073FB647B681B680C3351
:102D2000FA6C3A64FB63F96B3A6C41E80023BB63CD
:102D3000BB6B002BE5D17B681B6814333B623B6A9D
:102D400053E8003FFB61FB6923F00103BB647B6830
:102D50001B681433BA6CFA62BB62B96AFA6A41E85A
:102D600000237B627B6A002BE5D17B681B6B012B08
:102D700019D17B681B680C33FB60FB6853E8003F8C
:102D8000BB60BB6823F010037B647B681B680C335B
:102D90007A6CBA617B617969BA6941E800233B6169
:102DA0003B69002BE5D17B68202283F842207B68B9
:102DB00000221A6300BF5437BD465DF8047B70479C
:102DC00080B584B000AF78607B689B6BFB60FB686C
:102DD0000022DA85FB680022DA84F868FFF71EFF1C
:102DE00000BF1037BD4680BD80B485B000AF7860AD
:102DF0007B6893F84130DBB2212B3ED17B689B6826
:102E0000B3F5805F14D17B681B69002B10D17B6800
:102E10001B6AFB60FB681B881A467B681B68C2F351
:102E200008025A607B681B6A9A1C7B681A6208E079
:102E30007B681B6A591C7A6811621A787B681B6868
:102E40005A607B68DB8C9BB2013B9BB27A68194667
:102E5000D184002B0FD17B681B68DA687B681B6804
:102E600022F08002DA607B681B68DA687B681B6886
:102E700042F04002DA60002300E0022318461437D3
:102E8000BD465DF8047B704780B582B000AF7860C6
:102E90007B681B68DA687B681B6822F04002DA6096
:102EA0007B68202283F841207868FFF7A3FE002387
:102EB00018460837BD4680BD80B58CB000AF78603D
:102EC0007B6893F84230DBB2222B40F0AE807B6807
:102ED0009B68B3F5805F17D17B681B69002B13D10A
:102EE0000023FB627B689B6ABB627B681B685B6834
:102EF0009BB2C3F308039AB2BB6A1A807B689B6AD1
:102F00009A1C7B689A6226E07B689B6AFB620023BE
:102F1000BB627B689B68B3F5805F07D07B689B686A
:102F2000002B0AD17B681B69002B06D17B681B68CC
:102F30005B68DAB2FB6A1A7008E07B681B685B6842
:102F4000DBB203F07F03DAB2FB6A1A707B689B6A1C
:102F50005A1C7B689A627B68DB8D9BB2013B9BB2FB
:102F60007A681946D185002B5DD17B681B68DA68C9
:102F70007B681B6822F02002DA607B681B68DA68D5
:102F80007B681B6822F48072DA607B681B685A6970
:102F90007B681B6822F001025A617B68202283F85B
:102FA00042207B6800225A637B681B6B012B35D162
:102FB0007B6800221A637B681B680C337B617B692A
:102FC00053E8003F3B613B6923F010037B627B6861
:102FD0001B680C337A6A3A62FB61F9693A6A41E824
:102FE0000023BB61BB69002BE5D17B681B681B68B4
:102FF00003F01003102B0AD10023FB607B681B68D1
:103000001B68FB607B681B685B68FB60FB687B6818
:103010009B8D19467868FFF70BFE02E07868FFF792
:10302000F3FD002302E0002300E0022318463037BE
:10303000BD4680BD2DE9B04FC0B000AFC7F8F40069
:10304000D7F8F4301B681B6923F44050D7F8F430EC
:10305000D968D7F8F4301A6840EA01031361D7F849
:10306000F4309A68D7F8F4301B691A43D7F8F43073
:103070005B691A43D7F8F430DB691343C7F8F830BB
:10308000D7F8F4301B68DB6823F4164121F00C01FB
:10309000D7F8F4301A68D7F8F8300B43D360D7F874
:1030A000F4301B685B6923F44070D7F8F4309969F9
:1030B000D7F8F4301A6840EA01035361D7F8F430C6
:1030C0001A688F4B9A4205D0D7F8F4301A688D4BA6
:1030D0009A4204D1FEF7BEFEC7F8FC0003E0FEF7FB
:1030E000A5FEC7F8FC00D7F8F430DB69B3F5004F54
:1030F00040F00C81D7F8FC300022C7F8E830C7F860
:10310000EC20D7E93A4522462B469118B9655B4138
:10311000FB65D7E91623214612EB0108294643EB4C
:1031200001094FF000024FF000034FEAC90343EAE0
:1031300058734FEAC80290469946234618EB03039A
:10314000C7F8E0302B4649EB0303C7F8E430D7F863
:10315000F4305B680022C7F8D830C7F8DC20D7E924
:1031600036120B46DB183B65134642EB03037B65C7
:10317000D7E91423D7E93801FDF77AF802460B4660
:10318000614BA3FB02235B091C01D7F8FC30002232
:10319000C7F8D030C7F8D420D7E9348942464B4627
:1031A0009118B9645B41FB64D7E91223414612EBE5
:1031B000010A494643EB010B4FF000024FF00003B8
:1031C0004FEACB0343EA5A734FEACA0292469B4640
:1031D00043461AEB0303C7F8C8304B464BEB0303D7
:1031E000C7F8CC30D7F8F4305B680022C7F8C0309D
:1031F000C7F8C420D7E930120B46DB183B641346EE
:1032000042EB03037B64D7E91023D7E93201FDF7D2
:103210002FF802460B4611463B4BA3FB01235B09EB
:10322000642202FB03F3CB1ADB0003F13202364BBC
:10323000A3FB02235B095B0003F4F8731C44D7F87B
:10324000FC300022C7F8B830C7F8BC20D7E92E8977
:1032500042464B469118B9635B41FB63D7E90E23A5
:1032600041465118396349464B417B634FF0000298
:103270004FF00003D7E90CAB5946CB00514643EA67
:1032800051735146CA0010461946034642469B18E0
:10329000C7F8B0304B460A4642EB0303C7F8B430D8
:1032A000D7F8F4305B680022C7F8A830C7F8AC2024
:1032B000D7E92A120B46DB18BB62134642EB030325
:1032C000FB62D7E90A23D7E92C01FCF7D1FF0246BC
:1032D0000B460D4BA3FB02135B09642101FB03F3B7
:1032E000D31ADB003233084AA2FB03235B0903F045
:1032F0000702D7F8F4301B6822449A6006E100BF49
:1033000000100140001401401F85EB51D7F8FC303C
:103310000022C7F8A030C7F8A420D7E92889424680
:103320004B46911839625B417B62D7E908234146DD
:103330005418494643EB01054FF000024FF00003DB
:10334000EB0043EA5473E20014461D464346E3187B
:10335000C7F898304B4645EB0303C7F89C30D7F8C5
:10336000F4305B680022C7F89030C7F894204FF023
:1033700000024FF00003D7E9244529468B0021467F
:1033800043EA917321468A00D7E92601FCF770FFD2
:1033900002460B46604BA3FB02235B091C01D7F8D6
:1033A000FC300022C7F88830C7F88C20D7E9228982
:1033B00042464B469118B9615B41FB61D7E9062350
:1033C00041465118396149464B417B614FF000023B
:1033D0004FF00003D7E904AB5946CB00514643EA0E
:1033E00051735146CA0010461946034642469B187F
:1033F000C7F880304B460A4642EB0303C7F88430D7
:10340000D7F8F4305B680022BB67FA674FF0000220
:103410004FF00003D7E91E8949468B00414643EA35
:10342000917341468A00D7E92001FCF721FF02464B
:103430000B461146384BA3FB01235B09642202FBB8
:1034400003F3CB1A1B013233334AA2FB03235B097C
:1034500003F0F0031C44D7F8FC3000223B677A6786
:10346000D7E91C8942464B469118B9605B41FB6025
:10347000D7E9022341465118396049464B417B60E8
:103480004FF000024FF00003D7E900AB5946CB00E4
:10349000514643EA51735146CA0010461946034645
:1034A00042469B18BB664B460A4642EB0303FB664B
:1034B000D7F8F4305B6800223B667A664FF0000272
:1034C0004FF00003D7E9188949468B00414643EA8B
:1034D000917341468A00D7E91A01FCF7C9FE0246FA
:1034E0000B460D4BA3FB02135B09642101FB03F3A5
:1034F000D31A1B013233084AA2FB03235B0903F0F2
:103500000F02D7F8F4301B6822449A6000BF07F519
:103510008077BD46BDE8B08F1F85EB5180B584B084
:1035200000AF3B600346FB710B46BB7113467B71DA
:103530000023FB73BB79002B05D0BB79002B02D095
:10354000BB79F72B02D90223FB733AE01F4ABB7900
:103550001370FB79002B21D11D4B1E4A1A601E4BA4
:103560001E4A1A601E4B1F4A1A601F4B1F4A1A60E0
:103570001F4B00221A601F4B1F4A1A601F4B204A24
:103580001A60204B204A1A60104B18783B7E7979DC
:103590003A6800F029FD0346FB7301E00223FB7348
:1035A000FB7B002B0DD100F057FF0346002B02D10F
:1035B0000323FB7305E0154AFB791370144B0122BA
:1035C0001A70FB7B18461037BD4680BDF8010020FD
:1035D0000002002061400008040200208940000829
:1035E000FC0100204141000808020020A54000081D
:1035F0000C020020100200200942000814020020E2
:10360000D94200081802002089430008F90100206F
:103610000900002080B582B000AF0023FB71094B88
:103620001B78012B06D1084B1B689847054B0022DD
:103630001A7001E00623FB71FB7918460837BD4676
:1036400080BD00BF090000200002002090B583B0BB
:1036500000AF0023FB70504B1B78002B01D00623DA
:1036600095E0BB1C184600F01BFF0346012B40F001
:103670008D80BB78032B00F2898001A252F823F0E1
:103680008D37000891360008C33600088D370008D2
:10369000424B1B68424A4349434898470346FB70E4
:1036A000FB78002B6FD1404B1A78404B1B789A4225
:1036B00003D03D4B1B78002B65D1022000F0DAFED1
:1036C00061E0384B1B681A78394B1A70394B01226C
:1036D0001A7000237B601FE0374A7B6812F8333092
:1036E000002B1DD0344A7B6812F83320304B1B78F6
:1036F0009A420ED1304A7B68DB0013445B68294A4A
:10370000126827491046984703461A46294B1A70F3
:1037100007E07B6801337B607B680F2BDCDD00E01A
:1037200000BF214B1B78002B2FD0224B1B78002B86
:103730001DD01B4B00221A801D4B1A78194B19689B
:10374000174B1B88581C84B2154804800B4462F048
:103750007F02D2B21A70134B1A68114B1B88591C86
:1037600088B20F4908801344124A12781A70134B1A
:103770001B680E4A10780B4A1168094A128898474C
:103780000346FB7001E000BF00E000BF00231846C5
:103790000C37BD4690BD00BF090000200802002084
:1037A00024020020200200201C020020F80100203A
:1037B00026020020270200200C000020FC0100202F
:1037C00080B485B000AF78600B467B80FF23FB732D
:1037D000FF23BB7313E07B685A1C7A601A78BB7BAB
:1037E0005340DBB2BB60104ABB6813441A78FB7BC2
:1037F0005340BB730D4ABB6813441B78FB737B8833
:103800005A1E7A80002BE6D1FB7B1BB21B021AB238
:10381000BB7B1BB213431BB29BB218461437BD4689
:103820005DF8047B704700BFFC560008FC57000899
:1038300080B586B000AF786039600023BB753B6807
:103840001B88052B6AD17B6801331B781B02BB8266
:103850007B6802331B781A46BB8A1343BB82BB8A40
:103860000133BB827B6803331B781B027B827B683E
:1038700004331B781A467B8A13437B827B8A002B96
:1038800049D07B8AB3F5FA6F45D27B68FB603B6811
:1038900000221A80FB685A1CFA6001221A703B68E9
:1038A0001B8801339AB23B681A807B8A03F00703B6
:1038B000002B06D07B8ADB089BB2DBB20133FB75A1
:1038C00003E07B8ADB089BB2FB75FB685A1CFA603D
:1038D000FA7D1A703B681B8801339AB23B681A80E4
:1038E0007A8AB98A0023F868FCF700FF0346FB7266
:1038F000FB7A002B06D0FB7A184600F08BFD0346BE
:10390000BB750DE03B681A88FB7D9BB213449AB2ED
:103910003B681A8004E00323BB7501E00323BB75F9
:10392000BB7D18461837BD4680BD80B584B000AF5A
:10393000786039600023FB733B681B88052B3FD1FF
:103940007B6801331B781B02BB817B6802331B78C9
:103950001A46BB891343BB81BB890133BB817B689A
:1039600004331B78002B28D17B6803331B78FF2B93
:1039700004D07B6803331B78002B1ED100237B729D
:103980007B6803331B78FF2B02D101233B7201E0DC
:1039900000233B72B98907F1080001230122FCF7DB
:1039A000A5FE0346FB72FB7A002B0BD0FB7A184670
:1039B00000F030FD0346FB7304E00323FB7301E0DA
:1039C0000323FB73FB7B18461037BD4680BD80B5D3
:1039D00084B000AF786039600023BB733B681B88FC
:1039E000052B52D97B6801331B781B02BB817B6896
:1039F00002331B781A46BB891343BB81BB89013351
:103A0000BB817B6803331B781B027B817B6804339B
:103A10001B781A467B8913437B817B685B797B72B9
:103A20007B8903F00703002B06D07B89DB089BB260
:103A3000DBB20133FB7303E07B89DB089BB2FB73D2
:103A40007B89002B1ED07B89B3F5F66F1AD8FA7BE1
:103A50007B7A9A4216D17B68981D7A89B9890123AD
:103A6000FCF744FE03463B723B7A002B06D03B7AC0
:103A7000184600F0CFFC0346BB7308E03B68052204
:103A80001A8004E00323BB7301E00323BB73BB7BF9
:103A900018461037BD4680BD80B586B000AF78604F
:103AA00039600023BB753B681B88052B6AD17B6896
:103AB00001331B781B02BB827B6802331B781A46DA
:103AC000BB8A1343BB82BB8A0133BB827B6803334F
:103AD0001B781B027B827B6804331B781A467B8A27
:103AE00013437B827B8A002B49D07B8AB3F5FA6F24
:103AF00045D27B68FB603B6800221A80FB685A1C39
:103B0000FA6002221A703B681B8801339AB23B6844
:103B10001A807B8A03F00703002B06D07B8ADB0820
:103B20009BB2DBB20133FB7503E07B8ADB089BB2FF
:103B3000FB75FB685A1CFA60FA7D1A703B681B889B
:103B400001339AB23B681A807A8ABB8A1946F868B0
:103B5000FCF7E0FD0346FB72FB7A002B06D0FB7AF4
:103B6000184600F057FC0346BB750DE03B681A8809
:103B7000FB7D9BB213449AB23B681A8004E0032396
:103B8000BB7501E00323BB75BB7D18461837BD46E6
:103B900080BD80B584B000AF786039600023FB73CE
:103BA0003B681B88052B21D17B6801331B781B02E6
:103BB000BB817B6802331B781A46BB891343BB81E8
:103BC000BB890133BB817B68D81CB98901230122E1
:103BD000FCF7E4FC0346FB72FB7A002B08D0FB7A6F
:103BE000184600F017FC0346FB7301E00323FB7348
:103BF000FB7B18461037BD4680BD80B584B000AF52
:103C0000786039600023FB733B681B88052B44D91F
:103C10007B6801331B781B02BB817B6802331B78F6
:103C20001A46BB891343BB81BB890133BB817B68C7
:103C300003331B781B027B817B6804331B781A4695
:103C40007B8913437B817B685B797B727B89002B4B
:103C500020D07B89782B1DD87B89DBB25B00DBB25F
:103C60007A7A9A4216D17B68981D7A89B98901239C
:103C7000FCF794FC03463B723B7A002B06D03B7A60
:103C8000184600F0C7FB0346FB7308E03B680522BB
:103C90001A8004E00323FB7301E00323FB73FB7B27
:103CA00018461037BD4680BD80B586B000AF78603D
:103CB00039600023FB753B681B88052B5AD17B6854
:103CC00001331B781B02BB827B6802331B781A46C8
:103CD000BB8A1343BB82BB8A0133BB827B6803333D
:103CE0001B781B027B827B6804331B787B827B8A78
:103CF000002B3CD07B8A7D2B39D87B68FB603B68EE
:103D000000221A80FB685A1CFA6003221A703B6872
:103D10001B8801339AB23B681A807B8ADAB2FB684F
:103D2000591CF9605200D2B21A703B681B880133EB
:103D30009AB23B681A807A8AB98A0023F868FCF73D
:103D40002DFC0346FB72FB7A002B06D0FB7A18464B
:103D500000F060FB0346FB750EE03B681A887B8A27
:103D60005B009BB213449AB23B681A8004E00323C1
:103D7000FB7501E00323FB75FB7D18461837BD4634
:103D800080BD80B586B000AF786039600023FB75D8
:103D90003B681B88092B40F295807B6801331B78B8
:103DA0001B02BB827B6802331B781A46BB8A134313
:103DB000BB82BB8A0133BB827B6803331B781B0247
:103DC0007B827B6804331B781A467B8A13437B8291
:103DD0007B6805331B781B023B827B6806331B78AC
:103DE0001A463B8A13433B823B8A01333B827B6802
:103DF00007331B781B02FB817B6808331B781A464C
:103E0000FB891343FB817B685B7A7B737B8A002B86
:103E100056D07B8A7D2B53D8FB89002B50D0FB8951
:103E2000792B4DD8FB895A007B7B9A4248D17B681D
:103E300003F10A00FA89398A0123FCF7AFFB034634
:103E4000BB75BB7D002B31D17B68BB603B6800221A
:103E50001A80BB685A1CBA6017221A703B681B880C
:103E600001339AB23B681A807B8ADAB2BB68591C6C
:103E7000B9605200D2B21A703B681B8801339AB203
:103E80003B681A807A8AB98A0023B868FCF786FBF7
:103E90000346BB75BB7D002B08D13B681A887B8A23
:103EA0005B009BB213449AB23B681A80BB7D002B27
:103EB00008D0BB7D184600F0ADFA0346FB7501E063
:103EC0000323FB75FB7D18461837BD4680BD80B5C2
:103ED00086B000AF786039600023FB753B681B88B3
:103EE000052B5DD17B6801331B781B02BB827B688D
:103EF00002331B781A46BB8A1343BB82BB8A013349
:103F0000BB827B6803331B781B027B827B68043394
:103F10001B781A467B8A13437B827B8A002B3CD01A
:103F20007B8A7C2B39D87B68FB603B6800221A8037
:103F3000FB685A1CFA6004221A703B681B88013324
:103F40009AB23B681A807B8ADAB2FB68591CF96026
:103F50005200D2B21A703B681B8801339AB23B6898
:103F60001A807A8ABB8A1946F868FCF7E2FB034696
:103F7000FB72FB7A002B06D0FB7A184600F04AFA57
:103F80000346FB750EE03B681A887B8A5B009BB298
:103F900013449AB23B681A8004E00323FB7501E0E6
:103FA0000323FB75FB7D18461837BD4680BD000016
:103FB00080B582B000AF786039607B680133084A11
:103FC00012880849184600F00EFD054B1B88013386
:103FD0009AB23B681A80002318460837BD4680BD58
:103FE000480200202802002080B584B000AF3A606B
:103FF0001A460346FB710B46BB7113467B710023C7
:10400000FB7372B600BF7B79B8790822396800F07B
:104010009DFA0346012B02D00323FB7316E03B6895
:10402000B3F5964F02D92323BB6005E03B685B00E4
:104030000A4AB2FBF3F3BB60BB689BB2184600F0C0
:10404000C5FA0346012B01D00323FB7362B600BF00
:10405000FB7B18461037BD4680BD00BFA07F170010
:1040600080B500AF72B600BF064B00221A70002167
:10407000012000F033FA00F0E9FA62B600BF00BF99
:1040800080BD00BF4B02002080B500AF72B600BFFC
:104090000021002000F022FA00F0EAFA62B600BF28
:1040A00000BF80BD80B586B000AFF860B9607A60AF
:1040B0000023BB750023FB7572B600BF1A4B1B882B
:1040C0009BB2FF2B05D9194B194AA121194800F0C1
:1040D000D9FA154B1B889BB2032B1BD9124B1B889B
:1040E0009BB219461448FFF76BFB0346002B11D116
:1040F000114B1B78DAB2FB681A700B4B1B889BB212
:10410000033B9AB27B681A80BB680C4A1A60012391
:10411000BB7501E00523FB7562B600BFFB7D184649
:104120001837BD4680BD00BF52030020E45500088B
:10413000FC5800080C5600084C0200204D020020DC
:1041400080B584B000AF03463960FB711346BB8075
:104150000023FB7372B600BF264B1B78DBB2012B2A
:104160003FD13B68013B244A1360244B01221A8053
:10417000214B1B68FA791A70204B1B889AB2BB88B6
:1041800013449AB21D4B1A801B4B1B681B4A1288A2
:1041900092B211461846FFF713FB0346BB81174B3B
:1041A0001B889BB25A1C91B2144A11801A46BB89D3
:1041B000D9B2134B9954BB891B0A99B20F4B1B8878
:1041C0009BB25A1C90B20D4A10801A46C9B20C4BD1
:1041D00099540C4B01221A700121002000F07EF945
:1041E00001E00523FB7362B600BFFB7B1846103766
:1041F000BD4680BD4B0200204C0300205003002030
:104200004C0200204A02002080B582B000AF00239B
:10421000FB712A4B1B78DBB2002B05D0284B294AB7
:10422000EB21294800F02EFABB1D184600F0BAF920
:10423000264B1B78DBB2032B3BD801A252F823F0AC
:10424000514200085D4200088542000857420008BC
:1042500000F0FCF92DE000F0F9F92AE01C4B0022F7
:104260001A801B4B1B889BB25A1C91B2184A1180B2
:104270001A46B979174B9954144B02221A7000F060
:10428000E5F916E0124B1B889BB2FF2B0BD8104BA5
:104290001B889BB25A1C91B20D4A11801A46B979FB
:1042A0000C4B995402E0094B03221A7000F0CEF92E
:1042B00000BFFB7918460837BD4680BD4A02002082
:1042C000485600080C5900080C5600084B02002004
:1042D000520300204C02002080B582B000AF0023C2
:1042E000FB71224B1B78DBB2012B06D0204B214AFD
:1042F0004FF49371204800F0C5F9204B1B78DBB2D6
:10430000002B02D0012B05D02AE00021012000F073
:10431000E5F825E01A4B1B889BB2002B13D0194BF4
:104320001B681B78DBB2184600F024F9154B1B689C
:104330000133144A1360124B1B889BB2013B9AB2A3
:104340000F4B1A800BE0032000F094F80346FB713A
:104350000021012000F0C2F8084B00221A7000BFB3
:10436000FB7918460837BD4680BD00BF4B020020D0
:1043700064560008205900080C5600084A02002024
:10438000500300204C03002080B582B000AF002312
:10439000FB711C4B1B78DBB2032B28D0032B10DCEA
:1043A000002B02D0022B06D00BE0002000F062F8B8
:1043B0000346FB711CE0012000F05CF80346FB7132
:1043C00016E0104B1B78DBB2002B11D00D4B1B7885
:1043D000DBB2022B0CD00B4B1B78DBB2032B07D0CC
:1043E000094B0A4A40F25F11094800F04BF900BF3F
:1043F00000F03EF9034B01221A70FB79184608378A
:10440000BD4680BD4B02002080560008345900088C
:104410000C56000880B485B000AF0346FB71FB79F1
:10442000072B0CD0072B0DDC002B02D0012B03D067
:1044300008E00023FB7308E00223FB7305E006237A
:10444000FB7302E00423FB7300BFFB7B18461437A9
:10445000BD465DF8047B704780B400AF044B00227A
:104460001A7001231846BD465DF8047B704700BFF3
:104470005503002080B483B000AF0346FB71064BA8
:1044800001221A70054AFB791370012318460C3774
:10449000BD465DF8047B704755030020540300209F
:1044A00080B485B000AF78600023FB73094B1B78A4
:1044B000002B08D0084B1A787B681A70054B002235
:1044C0001A700123FB73FB7B18461437BD465DF859
:1044D000047B7047550300205403002080B483B050
:1044E00000AF03460A46FB711346BB71FB79002BF4
:1044F00008D0154B1B68DA68134B1B6842F020028A
:10450000DA6007E0104B1B68DA680F4B1B6822F07B
:104510002002DA60BB79002B08D00B4B1B68DA68ED
:10452000094B1B6842F08002DA6007E0064B1B680B
:10453000DA68054B1B6822F08002DA6000BF0C3796
:10454000BD465DF8047B70479401002080B483B0C1
:1045500000AF396011461A460346FB710B46BB712A
:1045600013467B71012318460C37BD465DF8047B6A
:104570007047000080B582B000AF0346FB71F91DA3
:104580000A2301220648FEF717F80346002B0CBF4A
:1045900001230023DBB218460837BD4680BD00BFAB
:1045A0009401002080B483B000AF7860064B1B6894
:1045B0005B68DAB27B681A70012318460C37BD4677
:1045C0005DF8047B704700BF9401002080B584B083
:1045D00000AF0346FB80194B194A1A60FDF726FC11
:1045E0000346184AA2FB03239B0C013B134A53606A
:1045F000124B00229A60114B3122DA60124AFB887A
:1046000013800E48FDF73AFC0346002B01D000232F
:104610000FE02023BB600023FB6007F1080319466D
:104620000648FDF7E9FE0346002B01D0002300E019
:10463000012318461037BD4680BD00BF4C01002045
:104640000014004083DE1B435603002080B500AFFA
:10465000044B1A88044B1A800448FDF75FFC00BF26
:1046600080BD00BF56030020580300204C010020ED
:1046700080B500AF0248FDF7C1FC00BF80BD00BFA0
:104680004C0100201FB514461A46094B1B6805460D
:10469000D8684CB1074B0091CDE9013406492B464F
:1046A00000F0B2F800F0ADF9044B1C46F3E700BF90
:1046B000980000204A5900085759000885590008F9
:1046C000002310B50446C0E90033C0E90433836019
:1046D00081814366C2818361194608225C3000F003
:1046E00006F90D4B63620D4BA3620D4BE3620D4B5C
:1046F00023630D4B24629C4206D003F1680294426E
:1047000002D0D0339C4205D104F15800BDE81040DE
:1047100000F066B910BD00BF694800088B4800086A
:10472000C3480008E74800085C030020024A034928
:10473000034800F07BB800BF8C000020A5520008A1
:104740009C00002041680C4B994210B5044601D0F2
:1047500000F0A8FDA168094B994202D0204600F064
:10476000A1FDE168064B994204D02046BDE8104007
:1047700000F098BD10BD00BF5C030020C403002002
:104780002C04002010B50B4B0B4C0C4A1A60204631
:1047900000220421FFF794FF04F16800012209219F
:1047A000FFF78EFF04F1D0000222BDE81040122175
:1047B000FFF786BF940400205C0300202D4700080B
:1047C000014800F00EB900BF9D040020014800F030
:1047D00009B900BF9D04002010B50446FFF7F0FFA3
:1047E000236A1BB1BDE81040FFF7F0BF044B236202
:1047F000044B1B68002BF5D1FFF7C4FFF2E700BFA5
:1048000045470008940400200EB403B5014603ABED
:10481000054853F8042B0068019300F01BFA02B01E
:104820005DF804EB03B07047980000202DE9F843D1
:104830000746884614460026D4E90195B9F10109D6
:1048400005D52468002CF7D13046BDE8F883AB8944
:10485000012B07D9B5F90E30013303D0294638466C
:10486000C04706436835E9E710B50C46B1F90E10AC
:1048700000F068F80028ABBF636DA3891B1823F410
:104880008053ACBF6365A38110BD2DE9F0411F4685
:104890008B89DB0505460C46164605D5B1F90E1089
:1048A0000223002200F03CF8A389B4F90E1023F48F
:1048B0008053A38132463B462846BDE8F04100F0D4
:1048C00053B810B50C46B1F90E1000F029F8431C8E
:1048D000A38915BF606523F4805343F48053A381FB
:1048E00018BFA38110BDB1F90E1000F009B8024441
:1048F0000346934200D1704703F8011BF9E700001B
:1049000038B5064D0023044608462B60FCF7ECF949
:10491000431C02D12B6803B1236038BD98040020EA
:1049200038B5074D04460846114600222A601A464B
:10493000FCF701FA431C02D12B6803B1236038BD98
:104940009804002038B5074D044608461146002259
:104950002A601A46FCF78FF9431C02D12B6803B179
:10496000236038BD9804002038B5074D044608463A
:10497000114600222A601A46FCF79AF9431C02D11C
:104980002B6803B1236038BD98040020014B1868E0
:10499000704700BF9800002070B50D4D0D4C641B92
:1049A000A4100026A64209D10B4D0C4C00F00EFEBF
:1049B000641BA4100026A64205D170BD55F8043B27
:1049C00098470136EEE755F8043B98470136F2E781
:1049D000C4590008C4590008C4590008C85900083F
:1049E0007047704770470A44914200F1FF3300D18D
:1049F000704710B511F8014B03F8014F9142F9D1FE
:104A000010BD08B5062000F031FD0120FCF728F9A3
:104A100038B50546002941D051F8043C0C1F002B45
:104A2000B8BFE41800F0E0F81D4A136833B96360BA
:104A300014602846BDE8384000F0DCB8A34208D92D
:104A4000206821188B4201BF19685B680918216032
:104A5000EDE71A465B680BB1A342FAD9116850180A
:104A6000A0420BD120680144501883421160E0D16C
:104A700018685B68536008441060DAE702D90C23B9
:104A80002B60D6E7206821188B4204BF19685B6849
:104A9000636004BF091821605460CAE738BD00BFD5
:104AA000A404002070B50F4E0C463168054611B9BC
:104AB00000F0F8FC30602146284600F0F3FC431C6F
:104AC00003D14FF0FF34204670BDC41C24F0030412
:104AD000A042F8D0211A284600F0E4FC0130F2D1BF
:104AE000EFE700BFA00400202DE9F843CD1C25F01E
:104AF000030508350C2D38BF0C25002D064601DBBB
:104B0000A94204D90C2333600020BDE8F883DFF804
:104B1000D48000F069F8D8F800301C4644BB294620
:104B20003046FFF7BFFF431C044658D1D8F8004079
:104B30002746002F43D1002C4BD0236839463046FE
:104B400004EB030900F0AEFC814542D121686D1AE7
:104B500029463046FFF7A6FF01303AD023682B44A0
:104B60002360D8F800305A6862BBC8F800700FE0C4
:104B70002268521B20D40B2A17D96119A342256041
:104B800018BF5960636808BFC8F8001062514B60D5
:104B9000304600F02FF804F10B00231D20F0070031
:104BA000C21A1CBF1B1AA350AFE76268A3420CBF16
:104BB000C8F800205A60EBE723466468AEE73C463D
:104BC0007F68B6E71A465B68A342FBD100235360B7
:104BD000DEE70C233360304600F00CF894E7056004
:104BE000D6E700BFA40400200148FFF7FABE00BFCB
:104BF0009C0400200148FFF7F5BE00BF9C04002084
:104C00009368013B002B10B4936008DA9469A342C7
:104C100001DB0A2903D15DF8044B00F06BBB13687C
:104C2000581C1060197008465DF8044B7047F8B5C1
:104C300006460F461446D518AC4201D1002007E0C5
:104C400014F8011B3A463046FFF7DAFF431CF3D154
:104C5000F8BD00002DE9F04F0D469DB01446984672
:104C6000064618B1036A0BB9FFF7B6FD6B6ED9079C
:104C700005D4AB899A0502D4A86DFFF7B2FEAB89C3
:104C80001B0701D52B699BB92946304600F070FB04
:104C900070B16B6EDC0704D54FF0FF301DB0BDE87E
:104CA000F08FAB899805F7D4A86DFFF79BFEF3E76B
:104CB0000023099320238DF82930CDF80C80302370
:104CC000DFF8AC818DF82A304FF0010923469A466F
:104CD00013F8012B0AB1252AF9D1BAEB040B0BD03A
:104CE0005B46224629463046FFF7A1FF013000F01F
:104CF000A780099A5A4409929AF80030002B00F0D4
:104D00009F8000234FF0FF32CDE905230AF1010A0D
:104D1000049307938DF853301A935446052214F8E0
:104D2000011B5348FBF754FA049AD8B9D10644BF83
:104D300020238DF85330130744BF2B238DF85330B5
:104D40009AF800302A2B15D0079A544600204FF0CD
:104D50000A0C214611F8013B303B092B4BD9B0B16D
:104D6000079214E0A0EB080309FA03F3134304933A
:104D7000A246D2E7039B191D1B680391002BBBBF02
:104D80005B4242F0020207930793B8BF0492237874
:104D90002E2B0AD163782A2B32D1039B1A1D1B6854
:104DA000039243EAE37302340593DFF8D4A0217839
:104DB00003225046FBF70CFA38B1049BA0EB0A0023
:104DC0004022824013430134049314F8011B294804
:104DD0008DF828100622FBF7FBF900283FD0264B60
:104DE0001BBB039B073323F0070308330393099B83
:104DF0003B4409936AE70CFB02320C460120A8E70A
:104E000000230134059319464FF00A0C204610F890
:104E1000012B303A092A03D9002BC6D00591C4E7EB
:104E20000CFB012104460123F0E703AB00932A4663
:104E3000124B04A93046AFF300800746781CD6D148
:104E40006B6ED90705D4AB899A0502D4A86DFFF71C
:104E5000C9FDAB895B063FF51FAF09981EE703ABA1
:104E600000932A46054B04A9304600F079F8E4E7A0
:104E70008659000890590008000000002F4C0008D7
:104E80008C5900082DE9F047164698468A680B6948
:104E9000DDF820909342B8BF1346336091F8432069
:104EA00007460C460AB1013333602368990642BFB6
:104EB000336802333360256815F0060506D104F126
:104EC000190AE36832689B1AAB4226DC94F8433037
:104ED0002268003B18BF012392062BD404F1430241
:104EE00041463846C84701301ED02368226903F086
:104EF0000603042B02BFE5683368ED1AA3680CBFF4
:104F000025EAE57500259342C4BF9B1AED180026DB
:104F10001A34B5421AD1002008E001235246414616
:104F20003846C847013003D14FF0FF30BDE8F08765
:104F30000135C6E7E1185A1C302081F843002244AD
:104F400094F8451082F843100233C7E70123224644
:104F500041463846C8470130E6D00136D9E700005F
:104F60002DE9FF470F7E0C9E782F914680460C4618
:104F70009A4601F1430207D8622F0AD8002F00F0A9
:104F8000D180582F00F0B88004F1420684F84270B6
:104F90003AE0A7F16303152BF6D801A151F823F0ED
:104FA000F94F00080D500008894F0008894F00088C
:104FB000894F0008894F00080D500008894F0008EC
:104FC000894F0008894F0008894F00080B510008DD
:104FD00037500008C5500008894F0008894F000865
:104FE0002D510008894F000837500008894F0008EC
:104FF000894F0008CD50000833681A1D1B683260C5
:1050000004F1420684F8423001239CE033682068B2
:10501000191D3160060601D51D6803E04506FBD564
:10502000B3F90050002D03DA2D236D4284F843308C
:1050300058480A2311E021683368080653F8045BD6
:1050400002D4490648BFADB26F2F5248336014BF37
:105050000A230823002184F843106668A660002E06
:1050600005DB21682E4321F0040121604BD0164658
:10507000B5FBF3F103FB1157C75D06F8017D2F4621
:10508000BB420D46F4D9082B0BD12368DF0708D5A6
:10509000236961689942DEBF302306F8013C06F1BE
:1050A000FF36921B2261CDF800A04B4603AA214691
:1050B0004046FFF7E7FE01304AD14FF0FF3004B021
:1050C000BDE8F087236843F0200323603248782747
:1050D00084F84570236831681F0651F8045B02D4D8
:1050E0005F0648BFADB23160D90744BF43F020032B
:1050F00023601DB11023ADE72648E9E7236823F0BC
:1051000020032360F6E71646BDE73368256861692A
:10511000181D30602E061B6801D5196002E0680674
:10512000FBD51980002323611646BCE733681A1D9E
:1051300032601E68626800213046FBF749F808B10A
:10514000801B606063682361002384F84330AAE712
:105150002369324649464046D0470130ADD02368E6
:105160009B0713D4E068039B9842B8BF1846A6E794
:105170000123324649464046D04701309DD0013593
:10518000E36803995B1AAB42F2DCEBE7002504F11C
:105190001906F5E797590008A8590008B1F90C203D
:1051A0002DE9F041160705460C4654D44B68002BF8
:1051B00002DC0B6C002B48DDE66A002E45D0002394
:1051C00012F480522F68216A2B6030D0626DA3895F
:1051D000590705D56368D21A636B0BB1236CD21AD9
:1051E0000023E66A216A2846B047431CA38906D1FA
:1051F00029681D292BD82A4ACA40D60727D500225C
:105200006260D9042269226004D5421C01D12B6856
:1052100003B96065616B2F60B9B104F14403994231
:1052200002D02846FFF7F4FB002363630DE001235F
:105230002846B0470246501CC9D12B68002BC6D067
:105240001D2B01D0162B1ED12F60002022E043F031
:1052500040031BB21BE00F69002FF6D093070E68C6
:1052600008BF4B690F6018BF0023A6EB07088B60CF
:10527000B8F1000FE9DD216AA66A43463A4628469E
:10528000B047002808DCB4F90C3043F04003A38198
:105290004FF0FF30BDE8F0810744A8EB0008E7E7D6
:1052A0000100402038B50B6905460C4613B90025AE
:1052B000284638BD18B1036A0BB9FFF78DFAB4F967
:1052C0000C30002BF3D0626ED00704D4990502D4C1
:1052D000A06DFFF786FB28462146FFF75FFF636E50
:1052E000DA070546E4D4A3899B05E1D4A06DFFF756
:1052F00079FBDDE7F8B50E461446054618B1036A9A
:105300000BB9FFF769FAA369A360A3891A0701D54E
:10531000236943B92146284600F02AF818B14FF016
:10532000FF373846F8BD23682269981A6369F6B2D8
:105330008342374605DC21462846FFF7B3FF0028A5
:10534000EDD1A368013BA36023685A1C22601E7044
:105350006269431C9A4204D0A389DB07E1D50A2E77
:10536000DFD121462846FFF79DFF0028D9D0D6E798
:1053700038B5294B054618680C4618B1036A0BB9B5
:10538000FFF72AFAB4F90C30190722D4DA0607D449
:1053900009222A6043F04003A3814FF0FF3033E03D
:1053A000580712D5616B41B104F14403994202D010
:1053B0002846FFF72DFB00236363A38923F0240312
:1053C000A3810023636023692360A38943F008035A
:1053D000A38123694BB9A38903F42073B3F5007F3C
:1053E00003D02146284600F093F8B4F90C3013F0AE
:1053F00001020AD00022A26062695242A2612269BF
:1054000042B913F08000C5D138BD990758BF626911
:10541000A260F4E70020F7E7980000201F2938B5C4
:1054200005460C4604D9162303604FF0FF3038BD03
:10543000C26B12B152F821304BB9284600F030F857
:10544000224601462846BDE8384000F017B8012B37
:105450000AD0591C03D1162303600120E7E700217D
:1054600042F82410204698470020E0E7024B01460E
:105470001868FFF7D3BF00BF9800002038B5074D6C
:1054800000230446084611462B60FBF7D9FB431C5A
:1054900002D12B6803B1236038BD00BF98040020FF
:1054A000FBF7C6BB38B5064D0023044608462B6003
:1054B000FBF74EFC431C02D12B6803B1236038BDBF
:1054C0009804002070B50C46B1F90E10002996B072
:1054D00015461E460DDAA38913F0800F4FF0000128
:1054E00014BF40234FF48063002031602B6016B05E
:1054F00070BD6A4600F048F80028ECDB019901F421
:105500007041A1F50053594259414FF48063EBE7D4
:105510008B89F7B59D0706460C4607D504F147036E
:10552000236023610123636103B0F0BD01AB6A46D0
:10553000FFF7C8FF009F054639463046FFF7D4FA0B
:1055400048B9B4F90C309A05EED423F0030343F0C4
:105550000203A381E2E7A389206043F08003A381D3
:10556000019BC4E904075BB1B4F90E10304600F0AA
:105570001DF828B1A38923F0030343F00103A3819D
:10558000A3891D43A581CFE738B5074D0023044605
:10559000084611462B60FBF7B3FB431C02D12B6876
:1055A00003B1236038BD00BF9804002038B5064D14
:1055B0000023044608462B60FBF7B2FB431C02D1D4
:1055C0002B6803B1236038BD98040020F8B500BFF4
:1055D000F8BC08BC9E467047F8B500BFF8BC08BCD4
:0455E0009E4670472C
:1055E4007573526376427566666572506F73203CBC
:1055F400204D425F5345525F5044555F53495A45CD
:105604005F4D415800000000443A2F4D45434F2060
:10561400546F6F6C732F50726F6A656374732F537A
:10562400544D3332437562652F4D6F646275735206
:1056340054552F4C6962726172792F6D6272747560
:105644002E63000065536E645374617465203D3DA0
:105654002053544154455F54585F49444C4500001D
:10566400655263765374617465203D3D2053544103
:1056740054455F52585F49444C4500002820655208
:1056840063765374617465203D3D20535441544501
:105694005F52585F494E49542029207C7C202820A1
:1056A400655263765374617465203D3D20535441C3
:1056B40054455F52585F5243562029207C7C202851
:1056C40020655263765374617465203D3D205354C4
:1056D4004154455F52585F4552524F5220290000B1
:1056E400000000000000000001020304060708098E
:1056F400000000000102030400C1814001C0804198
:1057040001C0804100C1814001C0804100C181408D
:1057140000C1814001C0804101C0804100C181407D
:1057240000C1814001C0804100C1814001C080416D
:1057340001C0804100C1814001C0804100C181405D
:1057440000C1814001C0804100C1814001C080414D
:1057540001C0804100C1814000C1814001C080413D
:1057640001C0804100C1814001C0804100C181402D
:1057740000C1814001C0804101C0804100C181401D
:1057840000C1814001C0804100C1814001C080410D
:1057940001C0804100C1814000C1814001C08041FD
:1057A40001C0804100C1814001C0804100C18140ED
:1057B40000C1814001C0804100C1814001C08041DD
:1057C40001C0804100C1814001C0804100C18140CD
:1057D40000C1814001C0804101C0804100C18140BD
:1057E40000C1814001C0804100C1814001C08041AD
:1057F40001C0804100C1814000C0C101C30302C295
:10580400C60607C705C5C404CC0C0DCD0FCFCE0EFC
:105814000ACACB0BC90908C8D81819D91BDBDA1A6C
:105824001EDEDF1FDD1D1CDC14D4D515D71716D6DC
:10583400D21213D311D1D010F03031F133F3F2324C
:1058440036F6F737F53534F43CFCFD3DFF3F3EFEBC
:10585400FA3A3BFB39F9F83828E8E929EB2B2AEA2C
:10586400EE2E2FEF2DEDEC2CE42425E527E7E6269C
:1058740022E2E323E12120E0A06061A163A3A2620C
:1058840066A6A767A56564A46CACAD6DAF6F6EAE7C
:10589400AA6A6BAB69A9A86878B8B979BB7B7ABAEC
:1058A400BE7E7FBF7DBDBC7CB47475B577B7B6765C
:1058B40072B2B373B17170B05090915193535292CC
:1058C40096565797559594549C5C5D9D5F9F9E5E3C
:1058D4005A9A9B5B99595898884849894B8B8A4AAC
:1058E4004E8E8F4F8D4D4C8C44848545874746861C
:1058F4008242438341818040654D425254555265F2
:105904006365697665000000784D425254555265CE
:10591400636569766546534D00000000784D425238
:1059240054555472616E736D697446534D00000092
:10593400784D4252545554696D65725433354578E7
:105944007069726564002C2066756E6374696F6E8D
:105954003A2000617373657274696F6E2022257337
:1059640022206661696C65643A2066696C65202250
:105974002573222C206C696E65202564257325739C
:105984000A00232D302B2000686C4C0065666745A7
:1059940046470030313233343536373839414243A3
:1059A4004445460030313233343536373839616254
:0859B400636465660000000059
:0859BC0014A8FF7F01000000A8
:0459C400B501000821
:0459C8009101000841
:1059CC000024F4001000000001020000110000008F
:1059DC00B13F000804000000CF3E000803000000A7
:1059EC00A93C000810000000FB3B0008060000006A
:1059FC00933B000817000000833D000801000000E5
:105A0C0031380008050000002B3900080F00000099
:105A1C00CF39000802000000993A0008000000008D
:105A2C00000000000000000000000000000000006A
:105A3C00000000000000000000000000000000005A
:105A4C00000000000000000000000000000000004A
:105A5C00030000005C0300209C00002000000000FC
:105A6C005C030020C40300202C0400200000000074
:105A7C00000000000000000000000000000000001A
:105A8C00000000000000000000000000000000000A
:105A9C0000000000000000000000000000000000FA
:085AAC000000000000000000F2
:0400000508000DE101
:00000001FF
